{
    "contractName": "Domains",
    "abi": [
        {
            "inputs": [
                {
                    "internalType": "string",
                    "name": "_tld",
                    "type": "string"
                }
            ],
            "stateMutability": "payable",
            "type": "constructor"
        },
        {
            "anonymous": false,
            "inputs": [
                {
                    "indexed": true,
                    "internalType": "address",
                    "name": "owner",
                    "type": "address"
                },
                {
                    "indexed": true,
                    "internalType": "address",
                    "name": "approved",
                    "type": "address"
                },
                {
                    "indexed": true,
                    "internalType": "uint256",
                    "name": "tokenId",
                    "type": "uint256"
                }
            ],
            "name": "Approval",
            "type": "event"
        },
        {
            "anonymous": false,
            "inputs": [
                {
                    "indexed": true,
                    "internalType": "address",
                    "name": "owner",
                    "type": "address"
                },
                {
                    "indexed": true,
                    "internalType": "address",
                    "name": "operator",
                    "type": "address"
                },
                {
                    "indexed": false,
                    "internalType": "bool",
                    "name": "approved",
                    "type": "bool"
                }
            ],
            "name": "ApprovalForAll",
            "type": "event"
        },
        {
            "anonymous": false,
            "inputs": [
                {
                    "indexed": true,
                    "internalType": "address",
                    "name": "from",
                    "type": "address"
                },
                {
                    "indexed": true,
                    "internalType": "address",
                    "name": "to",
                    "type": "address"
                },
                {
                    "indexed": true,
                    "internalType": "uint256",
                    "name": "tokenId",
                    "type": "uint256"
                }
            ],
            "name": "Transfer",
            "type": "event"
        },
        {
            "inputs": [
                {
                    "internalType": "address",
                    "name": "to",
                    "type": "address"
                },
                {
                    "internalType": "uint256",
                    "name": "tokenId",
                    "type": "uint256"
                }
            ],
            "name": "approve",
            "outputs": [],
            "stateMutability": "nonpayable",
            "type": "function"
        },
        {
            "inputs": [
                {
                    "internalType": "address",
                    "name": "owner",
                    "type": "address"
                }
            ],
            "name": "balanceOf",
            "outputs": [
                {
                    "internalType": "uint256",
                    "name": "",
                    "type": "uint256"
                }
            ],
            "stateMutability": "view",
            "type": "function"
        },
        {
            "inputs": [
                {
                    "internalType": "string",
                    "name": "",
                    "type": "string"
                }
            ],
            "name": "domains",
            "outputs": [
                {
                    "internalType": "address",
                    "name": "",
                    "type": "address"
                }
            ],
            "stateMutability": "view",
            "type": "function"
        },
        {
            "inputs": [
                {
                    "internalType": "string",
                    "name": "name",
                    "type": "string"
                }
            ],
            "name": "getAddress",
            "outputs": [
                {
                    "internalType": "address",
                    "name": "",
                    "type": "address"
                }
            ],
            "stateMutability": "view",
            "type": "function"
        },
        {
            "inputs": [
                {
                    "internalType": "uint256",
                    "name": "tokenId",
                    "type": "uint256"
                }
            ],
            "name": "getApproved",
            "outputs": [
                {
                    "internalType": "address",
                    "name": "",
                    "type": "address"
                }
            ],
            "stateMutability": "view",
            "type": "function"
        },
        {
            "inputs": [
                {
                    "internalType": "string",
                    "name": "name",
                    "type": "string"
                }
            ],
            "name": "getRecord",
            "outputs": [
                {
                    "internalType": "string",
                    "name": "",
                    "type": "string"
                }
            ],
            "stateMutability": "view",
            "type": "function"
        },
        {
            "inputs": [
                {
                    "internalType": "address",
                    "name": "owner",
                    "type": "address"
                },
                {
                    "internalType": "address",
                    "name": "operator",
                    "type": "address"
                }
            ],
            "name": "isApprovedForAll",
            "outputs": [
                {
                    "internalType": "bool",
                    "name": "",
                    "type": "bool"
                }
            ],
            "stateMutability": "view",
            "type": "function"
        },
        {
            "inputs": [],
            "name": "name",
            "outputs": [
                {
                    "internalType": "string",
                    "name": "",
                    "type": "string"
                }
            ],
            "stateMutability": "view",
            "type": "function"
        },
        {
            "inputs": [
                {
                    "internalType": "uint256",
                    "name": "tokenId",
                    "type": "uint256"
                }
            ],
            "name": "ownerOf",
            "outputs": [
                {
                    "internalType": "address",
                    "name": "",
                    "type": "address"
                }
            ],
            "stateMutability": "view",
            "type": "function"
        },
        {
            "inputs": [
                {
                    "internalType": "string",
                    "name": "name",
                    "type": "string"
                }
            ],
            "name": "price",
            "outputs": [
                {
                    "internalType": "uint256",
                    "name": "",
                    "type": "uint256"
                }
            ],
            "stateMutability": "pure",
            "type": "function"
        },
        {
            "inputs": [
                {
                    "internalType": "string",
                    "name": "",
                    "type": "string"
                }
            ],
            "name": "records",
            "outputs": [
                {
                    "internalType": "string",
                    "name": "",
                    "type": "string"
                }
            ],
            "stateMutability": "view",
            "type": "function"
        },
        {
            "inputs": [
                {
                    "internalType": "string",
                    "name": "name",
                    "type": "string"
                }
            ],
            "name": "register",
            "outputs": [],
            "stateMutability": "payable",
            "type": "function"
        },
        {
            "inputs": [
                {
                    "internalType": "address",
                    "name": "from",
                    "type": "address"
                },
                {
                    "internalType": "address",
                    "name": "to",
                    "type": "address"
                },
                {
                    "internalType": "uint256",
                    "name": "tokenId",
                    "type": "uint256"
                }
            ],
            "name": "safeTransferFrom",
            "outputs": [],
            "stateMutability": "nonpayable",
            "type": "function"
        },
        {
            "inputs": [
                {
                    "internalType": "address",
                    "name": "from",
                    "type": "address"
                },
                {
                    "internalType": "address",
                    "name": "to",
                    "type": "address"
                },
                {
                    "internalType": "uint256",
                    "name": "tokenId",
                    "type": "uint256"
                },
                {
                    "internalType": "bytes",
                    "name": "_data",
                    "type": "bytes"
                }
            ],
            "name": "safeTransferFrom",
            "outputs": [],
            "stateMutability": "nonpayable",
            "type": "function"
        },
        {
            "inputs": [
                {
                    "internalType": "address",
                    "name": "operator",
                    "type": "address"
                },
                {
                    "internalType": "bool",
                    "name": "approved",
                    "type": "bool"
                }
            ],
            "name": "setApprovalForAll",
            "outputs": [],
            "stateMutability": "nonpayable",
            "type": "function"
        },
        {
            "inputs": [
                {
                    "internalType": "string",
                    "name": "name",
                    "type": "string"
                },
                {
                    "internalType": "string",
                    "name": "record",
                    "type": "string"
                }
            ],
            "name": "setRecord",
            "outputs": [],
            "stateMutability": "nonpayable",
            "type": "function"
        },
        {
            "inputs": [
                {
                    "internalType": "bytes4",
                    "name": "interfaceId",
                    "type": "bytes4"
                }
            ],
            "name": "supportsInterface",
            "outputs": [
                {
                    "internalType": "bool",
                    "name": "",
                    "type": "bool"
                }
            ],
            "stateMutability": "view",
            "type": "function"
        },
        {
            "inputs": [],
            "name": "symbol",
            "outputs": [
                {
                    "internalType": "string",
                    "name": "",
                    "type": "string"
                }
            ],
            "stateMutability": "view",
            "type": "function"
        },
        {
            "inputs": [],
            "name": "tld",
            "outputs": [
                {
                    "internalType": "string",
                    "name": "",
                    "type": "string"
                }
            ],
            "stateMutability": "view",
            "type": "function"
        },
        {
            "inputs": [
                {
                    "internalType": "uint256",
                    "name": "tokenId",
                    "type": "uint256"
                }
            ],
            "name": "tokenURI",
            "outputs": [
                {
                    "internalType": "string",
                    "name": "",
                    "type": "string"
                }
            ],
            "stateMutability": "view",
            "type": "function"
        },
        {
            "inputs": [
                {
                    "internalType": "address",
                    "name": "from",
                    "type": "address"
                },
                {
                    "internalType": "address",
                    "name": "to",
                    "type": "address"
                },
                {
                    "internalType": "uint256",
                    "name": "tokenId",
                    "type": "uint256"
                }
            ],
            "name": "transferFrom",
            "outputs": [],
            "stateMutability": "nonpayable",
            "type": "function"
        }
    ],
    "bytecode": "61084060405261078960808181529062002b6660a03980516200002b91600991602090910190620001cd565b5060408051808201909152600d8082526c1e17ba32bc3a1f1e17b9bb339f60991b60209092019182526200006291600a91620001cd565b50604051620032ef380380620032ef8339810160408190526200008591620002bc565b60408051808201825260118152704865726f204e616d65205365727669636560781b602080830191825283518085019094526003845262484e5360e81b908401528151919291620000d991600091620001cd565b508051620000ef906001906020840190620001cd565b505081516200010791506008906020840190620001cd565b50620001546040518060400160405280601881526020017f2573206e616d652073657276696365206465706c6f7965640000000000000000815250826200015b60201b62000fdc1760201c565b5062000411565b620001a8828260405160240162000174929190620003a2565b60408051601f198184030181529190526020810180516001600160e01b03908116634b5c427760e01b17909152620001ac16565b5050565b80516a636f6e736f6c652e6c6f67602083016000808483855afa5050505050565b828054620001db90620003d4565b90600052602060002090601f016020900481019282620001ff57600085556200024a565b82601f106200021a57805160ff19168380011785556200024a565b828001600101855582156200024a579182015b828111156200024a5782518255916020019190600101906200022d565b50620002589291506200025c565b5090565b5b808211156200025857600081556001016200025d565b634e487b7160e01b600052604160045260246000fd5b60005b83811015620002a65781810151838201526020016200028c565b83811115620002b6576000848401525b50505050565b600060208284031215620002cf57600080fd5b81516001600160401b0380821115620002e757600080fd5b818401915084601f830112620002fc57600080fd5b81518181111562000311576200031162000273565b604051601f8201601f19908116603f011681019083821181831017156200033c576200033c62000273565b816040528281528760208487010111156200035657600080fd5b6200036983602083016020880162000289565b979650505050505050565b600081518084526200038e81602086016020860162000289565b601f01601f19169290920160200192915050565b604081526000620003b7604083018562000374565b8281036020840152620003cb818562000374565b95945050505050565b600181811c90821680620003e957607f821691505b602082108114156200040b57634e487b7160e01b600052602260045260246000fd5b50919050565b61274580620004216000396000f3fe60806040526004361061012a5760003560e01c80636352211e116100ab578063bf40fac11161006f578063bf40fac114610359578063c1880a9814610379578063c87b56dd14610399578063e985e9c5146103b9578063f2c298be14610402578063fe2c61981461041557600080fd5b80636352211e146102b657806370a08231146102d657806395d89b4114610304578063a22cb46514610319578063b88d4fde1461033957600080fd5b806323b872dd116100f257806323b872dd1461020057806326449235146102205780632d5514321461026157806342842e0e14610276578063541e771d1461029657600080fd5b806301ffc9a71461012f57806306fdde0314610164578063081812fc14610186578063095ea7b3146101be57806311dd8845146101e0575b600080fd5b34801561013b57600080fd5b5061014f61014a366004611d4b565b610435565b60405190151581526020015b60405180910390f35b34801561017057600080fd5b50610179610487565b60405161015b9190611dc0565b34801561019257600080fd5b506101a66101a1366004611dd3565b610519565b6040516001600160a01b03909116815260200161015b565b3480156101ca57600080fd5b506101de6101d9366004611e08565b6105a6565b005b3480156101ec57600080fd5b506101796101fb366004611e7b565b6106bc565b34801561020c57600080fd5b506101de61021b366004611ebd565b61076f565b34801561022c57600080fd5b506101a661023b366004611f85565b8051602081830181018051600b825292820191909301209152546001600160a01b031681565b34801561026d57600080fd5b506101796107a0565b34801561028257600080fd5b506101de610291366004611ebd565b61082e565b3480156102a257600080fd5b506101796102b1366004611f85565b610849565b3480156102c257600080fd5b506101a66102d1366004611dd3565b61086d565b3480156102e257600080fd5b506102f66102f1366004611fce565b6108e4565b60405190815260200161015b565b34801561031057600080fd5b5061017961096b565b34801561032557600080fd5b506101de610334366004611fe9565b61097a565b34801561034557600080fd5b506101de610354366004612025565b610989565b34801561036557600080fd5b506101a6610374366004611e7b565b6109c1565b34801561038557600080fd5b506101de6103943660046120a1565b6109f6565b3480156103a557600080fd5b506101796103b4366004611dd3565b610a6a565b3480156103c557600080fd5b5061014f6103d436600461210d565b6001600160a01b03918216600090815260056020908152604080832093909416825291909152205460ff1690565b6101de610410366004611e7b565b610be1565b34801561042157600080fd5b506102f6610430366004611e7b565b610f46565b60006001600160e01b031982166380ac58cd60e01b148061046657506001600160e01b03198216635b5e139f60e01b145b8061048157506301ffc9a760e01b6001600160e01b03198316145b92915050565b60606000805461049690612140565b80601f01602080910402602001604051908101604052809291908181526020018280546104c290612140565b801561050f5780601f106104e45761010080835404028352916020019161050f565b820191906000526020600020905b8154815290600101906020018083116104f257829003601f168201915b5050505050905090565b600061052482611021565b61058a5760405162461bcd60e51b815260206004820152602c60248201527f4552433732313a20617070726f76656420717565727920666f72206e6f6e657860448201526b34b9ba32b73a103a37b5b2b760a11b60648201526084015b60405180910390fd5b506000908152600460205260409020546001600160a01b031690565b60006105b18261086d565b9050806001600160a01b0316836001600160a01b0316141561061f5760405162461bcd60e51b815260206004820152602160248201527f4552433732313a20617070726f76616c20746f2063757272656e74206f776e656044820152603960f91b6064820152608401610581565b336001600160a01b038216148061063b575061063b81336103d4565b6106ad5760405162461bcd60e51b815260206004820152603860248201527f4552433732313a20617070726f76652063616c6c6572206973206e6f74206f7760448201527f6e6572206e6f7220617070726f76656420666f7220616c6c00000000000000006064820152608401610581565b6106b7838361103e565b505050565b6060600c83836040516106d092919061217b565b908152602001604051809103902080546106e990612140565b80601f016020809104026020016040519081016040528092919081815260200182805461071590612140565b80156107625780601f1061073757610100808354040283529160200191610762565b820191906000526020600020905b81548152906001019060200180831161074557829003601f168201915b5050505050905092915050565b61077933826110ac565b6107955760405162461bcd60e51b81526004016105819061218b565b6106b7838383611192565b600880546107ad90612140565b80601f01602080910402602001604051908101604052809291908181526020018280546107d990612140565b80156108265780601f106107fb57610100808354040283529160200191610826565b820191906000526020600020905b81548152906001019060200180831161080957829003601f168201915b505050505081565b6106b783838360405180602001604052806000815250610989565b8051602081830181018051600c82529282019190930120915280546107ad90612140565b6000818152600260205260408120546001600160a01b0316806104815760405162461bcd60e51b815260206004820152602960248201527f4552433732313a206f776e657220717565727920666f72206e6f6e657869737460448201526832b73a103a37b5b2b760b91b6064820152608401610581565b60006001600160a01b03821661094f5760405162461bcd60e51b815260206004820152602a60248201527f4552433732313a2062616c616e636520717565727920666f7220746865207a65604482015269726f206164647265737360b01b6064820152608401610581565b506001600160a01b031660009081526003602052604090205490565b60606001805461049690612140565b61098533838361132e565b5050565b61099333836110ac565b6109af5760405162461bcd60e51b81526004016105819061218b565b6109bb848484846113fd565b50505050565b6000600b83836040516109d592919061217b565b908152604051908190036020019020546001600160a01b0316905092915050565b336001600160a01b0316600b8585604051610a1292919061217b565b908152604051908190036020019020546001600160a01b031614610a3557600080fd5b8181600c8686604051610a4992919061217b565b908152604051908190036020019020610a63929091611c28565b5050505050565b6060610a7582611021565b610adb5760405162461bcd60e51b815260206004820152603160248201527f45524337323155524953746f726167653a2055524920717565727920666f72206044820152703737b732bc34b9ba32b73a103a37b5b2b760791b6064820152608401610581565b60008281526006602052604081208054610af490612140565b80601f0160208091040260200160405190810160405280929190818152602001828054610b2090612140565b8015610b6d5780601f10610b4257610100808354040283529160200191610b6d565b820191906000526020600020905b815481529060010190602001808311610b5057829003601f168201915b505050505090506000610b8b60408051602081019091526000815290565b9050805160001415610b9e575092915050565b815115610bd0578082604051602001610bb89291906121dc565b60405160208183030381529060405292505050919050565b610bd984611430565b949350505050565b60006001600160a01b0316600b8383604051610bfe92919061217b565b908152604051908190036020019020546001600160a01b031614610c2157600080fd5b6000610c2d8383610f46565b905080341015610c775760405162461bcd60e51b8152602060048201526015602482015274139bdd08195b9bdd59da0813585d1a58c81c185a59605a1b6044820152606401610581565b600083836008604051602001610c8f939291906122a5565b60405160208183030381529060405290506000600982600a604051602001610cb9939291906122ce565b60405160208183030381529060405290506000610cd560075490565b90506000610d1887878080601f01602080910402602001604051908101604052809392919081815260200183838082843760009201919091525061150892505050565b90506000610d258261160b565b9050610e0c6040518060600160405280603181526020016126666031913989898080601f0160208091040260200160405190810160405280939291908181526020018383808284376000920191909152505060088054909250610d889150612140565b80601f0160208091040260200160405190810160405280929190818152602001828054610db490612140565b8015610e015780601f10610dd657610100808354040283529160200191610e01565b820191906000526020600020905b815481529060010190602001808311610de457829003601f168201915b505050505086611709565b6000610e4286610e1b87611752565b84604051602001610e2e93929190612301565b604051602081830303815290604052611752565b9050600081604051602001610e5791906123f9565b60408051601f19818403018152606083019091526039808352909250610e85919061262d60208301396118b8565b610eb56040518060400160405280600e81526020016d46696e616c20746f6b656e55524960901b81525082610fdc565b610ed6604051806060016040528060398152602001612697603991396118b8565b610ee033866118fe565b610eea8582611918565b33600b8b8b604051610efd92919061217b565b90815260405190819003602001902080546001600160a01b03929092166001600160a01b0319909216919091179055610f3a600780546001019055565b50505050505050505050565b600080610f8884848080601f01602080910402602001604051908101604052809392919081815260200183838082843760009201919091525061150892505050565b905060008111610f9757600080fd5b8060031415610fb1576706f05b59d3b20000915050610481565b8060041415610fcb57670429d069189e0000915050610481565b67016345785d8a0000915050610481565b6109858282604051602401610ff292919061243e565b60408051601f198184030181529190526020810180516001600160e01b0316634b5c427760e01b1790526119a3565b6000908152600260205260409020546001600160a01b0316151590565b600081815260046020526040902080546001600160a01b0319166001600160a01b03841690811790915581906110738261086d565b6001600160a01b03167f8c5be1e5ebec7d5bd14f71427d1e84f3dd0314c0f7b2291e5b200ac8c7c3b92560405160405180910390a45050565b60006110b782611021565b6111185760405162461bcd60e51b815260206004820152602c60248201527f4552433732313a206f70657261746f7220717565727920666f72206e6f6e657860448201526b34b9ba32b73a103a37b5b2b760a11b6064820152608401610581565b60006111238361086d565b9050806001600160a01b0316846001600160a01b0316148061115e5750836001600160a01b031661115384610519565b6001600160a01b0316145b80610bd957506001600160a01b0380821660009081526005602090815260408083209388168352929052205460ff16610bd9565b826001600160a01b03166111a58261086d565b6001600160a01b0316146112095760405162461bcd60e51b815260206004820152602560248201527f4552433732313a207472616e736665722066726f6d20696e636f72726563742060448201526437bbb732b960d91b6064820152608401610581565b6001600160a01b03821661126b5760405162461bcd60e51b8152602060048201526024808201527f4552433732313a207472616e7366657220746f20746865207a65726f206164646044820152637265737360e01b6064820152608401610581565b61127660008261103e565b6001600160a01b038316600090815260036020526040812080546001929061129f908490612482565b90915550506001600160a01b03821660009081526003602052604081208054600192906112cd908490612499565b909155505060008181526002602052604080822080546001600160a01b0319166001600160a01b0386811691821790925591518493918716917fddf252ad1be2c89b69c2b068fc378daa952ba7f163c4a11628f55a4df523b3ef91a4505050565b816001600160a01b0316836001600160a01b031614156113905760405162461bcd60e51b815260206004820152601960248201527f4552433732313a20617070726f766520746f2063616c6c6572000000000000006044820152606401610581565b6001600160a01b03838116600081815260056020908152604080832094871680845294825291829020805460ff191686151590811790915591519182527f17307eab39ab6107e8899845ad3d59bd9653f200f220920489ca2b5937696c31910160405180910390a3505050565b611408848484611192565b611414848484846119c4565b6109bb5760405162461bcd60e51b8152600401610581906124b1565b606061143b82611021565b61149f5760405162461bcd60e51b815260206004820152602f60248201527f4552433732314d657461646174613a2055524920717565727920666f72206e6f60448201526e3732bc34b9ba32b73a103a37b5b2b760891b6064820152608401610581565b60006114b660408051602081019091526000815290565b905060008151116114d65760405180602001604052806000815250611501565b806114e08461160b565b6040516020016114f19291906121dc565b6040516020818303038152906040525b9392505050565b8051600090819081905b8082101561160257600085838151811061152e5761152e612503565b01602001516001600160f81b0319169050600160ff1b81101561155d57611556600184612499565b92506115ef565b600760fd1b6001600160f81b03198216101561157e57611556600284612499565b600f60fc1b6001600160f81b03198216101561159f57611556600384612499565b601f60fb1b6001600160f81b0319821610156115c057611556600484612499565b603f60fa1b6001600160f81b0319821610156115e157611556600584612499565b6115ec600684612499565b92505b50826115fa81612519565b935050611512565b50909392505050565b60608161162f5750506040805180820190915260018152600360fc1b602082015290565b8160005b8115611659578061164381612519565b91506116529050600a8361254a565b9150611633565b60008167ffffffffffffffff81111561167457611674611ef9565b6040519080825280601f01601f19166020018201604052801561169e576020820181803683370190505b5090505b8415610bd9576116b3600183612482565b91506116c0600a8661255e565b6116cb906030612499565b60f81b8183815181106116e0576116e0612503565b60200101906001600160f81b031916908160001a905350611702600a8661254a565b94506116a2565b6109bb848484846040516024016117239493929190612572565b60408051601f198184030181529190526020810180516001600160e01b0316639fd009f560e01b1790526119a3565b805160609080611772575050604080516020810190915260008152919050565b60006003611781836002612499565b61178b919061254a565b6117969060046125bd565b905060006117a5826020612499565b67ffffffffffffffff8111156117bd576117bd611ef9565b6040519080825280601f01601f1916602001820160405280156117e7576020820181803683370190505b50905060006040518060600160405280604081526020016126d0604091399050600181016020830160005b86811015611873576003818a01810151603f601282901c8116860151600c83901c8216870151600684901c831688015192909316870151600891821b60ff94851601821b92841692909201901b91160160e01b835260049092019101611812565b50600386066001811461188d576002811461189e576118aa565b613d3d60f01b6001198301526118aa565b603d60f81b6000198301525b505050918152949350505050565b6118fb816040516024016118cc9190611dc0565b60408051601f198184030181529190526020810180516001600160e01b031663104c13eb60e21b1790526119a3565b50565b610985828260405180602001604052806000815250611ac2565b61192182611021565b6119845760405162461bcd60e51b815260206004820152602e60248201527f45524337323155524953746f726167653a2055524920736574206f66206e6f6e60448201526d32bc34b9ba32b73a103a37b5b2b760911b6064820152608401610581565b600082815260066020908152604090912082516106b792840190611cac565b80516a636f6e736f6c652e6c6f67602083016000808483855afa5050505050565b60006001600160a01b0384163b15611ab757604051630a85bd0160e11b81526001600160a01b0385169063150b7a0290611a089033908990889088906004016125dc565b6020604051808303816000875af1925050508015611a43575060408051601f3d908101601f19168201909252611a409181019061260f565b60015b611a9d573d808015611a71576040519150601f19603f3d011682016040523d82523d6000602084013e611a76565b606091505b508051611a955760405162461bcd60e51b8152600401610581906124b1565b805181602001fd5b6001600160e01b031916630a85bd0160e11b149050610bd9565b506001949350505050565b611acc8383611af5565b611ad960008484846119c4565b6106b75760405162461bcd60e51b8152600401610581906124b1565b6001600160a01b038216611b4b5760405162461bcd60e51b815260206004820181905260248201527f4552433732313a206d696e7420746f20746865207a65726f20616464726573736044820152606401610581565b611b5481611021565b15611ba15760405162461bcd60e51b815260206004820152601c60248201527f4552433732313a20746f6b656e20616c7265616479206d696e746564000000006044820152606401610581565b6001600160a01b0382166000908152600360205260408120805460019290611bca908490612499565b909155505060008181526002602052604080822080546001600160a01b0319166001600160a01b03861690811790915590518392907fddf252ad1be2c89b69c2b068fc378daa952ba7f163c4a11628f55a4df523b3ef908290a45050565b828054611c3490612140565b90600052602060002090601f016020900481019282611c565760008555611c9c565b82601f10611c6f5782800160ff19823516178555611c9c565b82800160010185558215611c9c579182015b82811115611c9c578235825591602001919060010190611c81565b50611ca8929150611d20565b5090565b828054611cb890612140565b90600052602060002090601f016020900481019282611cda5760008555611c9c565b82601f10611cf357805160ff1916838001178555611c9c565b82800160010185558215611c9c579182015b82811115611c9c578251825591602001919060010190611d05565b5b80821115611ca85760008155600101611d21565b6001600160e01b0319811681146118fb57600080fd5b600060208284031215611d5d57600080fd5b813561150181611d35565b60005b83811015611d83578181015183820152602001611d6b565b838111156109bb5750506000910152565b60008151808452611dac816020860160208601611d68565b601f01601f19169290920160200192915050565b6020815260006115016020830184611d94565b600060208284031215611de557600080fd5b5035919050565b80356001600160a01b0381168114611e0357600080fd5b919050565b60008060408385031215611e1b57600080fd5b611e2483611dec565b946020939093013593505050565b60008083601f840112611e4457600080fd5b50813567ffffffffffffffff811115611e5c57600080fd5b602083019150836020828501011115611e7457600080fd5b9250929050565b60008060208385031215611e8e57600080fd5b823567ffffffffffffffff811115611ea557600080fd5b611eb185828601611e32565b90969095509350505050565b600080600060608486031215611ed257600080fd5b611edb84611dec565b9250611ee960208501611dec565b9150604084013590509250925092565b634e487b7160e01b600052604160045260246000fd5b600067ffffffffffffffff80841115611f2a57611f2a611ef9565b604051601f8501601f19908116603f01168101908282118183101715611f5257611f52611ef9565b81604052809350858152868686011115611f6b57600080fd5b858560208301376000602087830101525050509392505050565b600060208284031215611f9757600080fd5b813567ffffffffffffffff811115611fae57600080fd5b8201601f81018413611fbf57600080fd5b610bd984823560208401611f0f565b600060208284031215611fe057600080fd5b61150182611dec565b60008060408385031215611ffc57600080fd5b61200583611dec565b91506020830135801515811461201a57600080fd5b809150509250929050565b6000806000806080858703121561203b57600080fd5b61204485611dec565b935061205260208601611dec565b925060408501359150606085013567ffffffffffffffff81111561207557600080fd5b8501601f8101871361208657600080fd5b61209587823560208401611f0f565b91505092959194509250565b600080600080604085870312156120b757600080fd5b843567ffffffffffffffff808211156120cf57600080fd5b6120db88838901611e32565b909650945060208701359150808211156120f457600080fd5b5061210187828801611e32565b95989497509550505050565b6000806040838503121561212057600080fd5b61212983611dec565b915061213760208401611dec565b90509250929050565b600181811c9082168061215457607f821691505b6020821081141561217557634e487b7160e01b600052602260045260246000fd5b50919050565b8183823760009101908152919050565b60208082526031908201527f4552433732313a207472616e736665722063616c6c6572206973206e6f74206f6040820152701ddb995c881b9bdc88185c1c1c9bdd9959607a1b606082015260800190565b600083516121ee818460208801611d68565b835190830190612202818360208801611d68565b01949350505050565b8054600090600181811c908083168061222557607f831692505b602080841082141561224757634e487b7160e01b600052602260045260246000fd5b81801561225b576001811461226c57612299565b60ff19861689528489019650612299565b60008881526020902060005b868110156122915781548b820152908501908301612278565b505084890196505b50505050505092915050565b82848237601760f91b8184019081526000906122c4600182018561220b565b9695505050505050565b60006122da828661220b565b84516122ea818360208901611d68565b6122f68183018661220b565b979650505050505050565b693d913730b6b2911d101160b11b8152835160009061232781600a850160208901611d68565b7f222c20226465736372697074696f6e223a20224120646f6d61696e206f6e2074600a918401918201527f6865204e696e6a61206e616d652073657276696365222c2022696d616765223a602a8201527f2022646174613a696d6167652f7376672b786d6c3b6261736536342c00000000604a82015284516123b0816066840160208901611d68565b6b1116113632b733ba34111d1160a11b6066929091019182015283516123dd816072840160208801611d68565b61227d60f01b6072929091019182015260740195945050505050565b7f646174613a6170706c69636174696f6e2f6a736f6e3b6261736536342c00000081526000825161243181601d850160208701611d68565b91909101601d0192915050565b6040815260006124516040830185611d94565b82810360208401526124638185611d94565b95945050505050565b634e487b7160e01b600052601160045260246000fd5b6000828210156124945761249461246c565b500390565b600082198211156124ac576124ac61246c565b500190565b60208082526032908201527f4552433732313a207472616e7366657220746f206e6f6e20455243373231526560408201527131b2b4bb32b91034b6b83632b6b2b73a32b960711b606082015260800190565b634e487b7160e01b600052603260045260246000fd5b600060001982141561252d5761252d61246c565b5060010190565b634e487b7160e01b600052601260045260246000fd5b60008261255957612559612534565b500490565b60008261256d5761256d612534565b500690565b6080815260006125856080830187611d94565b82810360208401526125978187611d94565b905082810360408401526125ab8186611d94565b91505082606083015295945050505050565b60008160001904831182151516156125d7576125d761246c565b500290565b6001600160a01b03858116825284166020820152604081018390526080606082018190526000906122c490830184611d94565b60006020828403121561262157600080fd5b815161150181611d3556fe0a2d2d2d2d2d2d2d2d2d2d2d2d2d2d2d2d2d2d2d2d2d2d2d2d2d2d2d2d2d2d2d2d2d2d2d2d2d2d2d2d2d2d2d2d2d2d2d2d2d2d2d2d2d2d2d2d5265676973746572696e672025732e2573206f6e2074686520636f6e7472616374207769746820746f6b656e49442025642d2d2d2d2d2d2d2d2d2d2d2d2d2d2d2d2d2d2d2d2d2d2d2d2d2d2d2d2d2d2d2d2d2d2d2d2d2d2d2d2d2d2d2d2d2d2d2d2d2d2d2d2d2d2d2d0a4142434445464748494a4b4c4d4e4f505152535455565758595a6162636465666768696a6b6c6d6e6f707172737475767778797a303132333435363738392b2fa2646970667358221220fe3b18132a5a31496ba2c6638a7f90a95e5d71aad04ab90539454c74fc89637964736f6c634300080c00333c73766720786d6c6e733d22687474703a2f2f7777772e77332e6f72672f323030302f737667222077696474683d2232373022206865696768743d22323730222066696c6c3d226e6f6e65223e3c706174682066696c6c3d2275726c282361292220643d224d302030683237307632373048307a222f3e3c646566733e3c66696c7465722069643d22622220636f6c6f722d696e746572706f6c6174696f6e2d66696c746572733d2273524742222066696c746572556e6974733d227573657253706163654f6e55736522206865696768743d22323730222077696474683d22323730223e3c666544726f70536861646f772064783d2230222064793d22312220737464446576696174696f6e3d22322220666c6f6f642d6f7061636974793d222e323235222077696474683d223230302522206865696768743d2232303025222f3e3c2f66696c7465723e3c2f646566733e3c7061746820643d224d37322e3836332034322e39343961342e33383220342e3338322030203020302d342e33393420306c2d31302e30383120362e3033322d362e383520332e3933342d31302e30383120362e30333261342e33383220342e3338322030203020312d342e33393420306c2d382e3031332d342e37323161342e353220342e35322030203020312d312e3538392d312e36313620342e353420342e35342030203020312d2e3630382d322e313837762d392e333161342e323720342e3237203020302031202e3537322d322e32303820342e323520342e323520302030203120312e3632352d312e3539356c372e3838342d342e353961342e33383220342e33383220302030203120342e33393420306c372e38383420342e353961342e353220342e353220302030203120312e35383920312e36313620342e353420342e3534203020302031202e36303820322e31383776362e3033326c362e38352d342e303635762d362e30333261342e323720342e32372030203020302d2e3537322d322e32303820342e323520342e32352030203020302d312e3632352d312e3539354c34312e3435362032342e353961342e33383220342e3338322030203020302d342e33393420306c2d31342e38363420382e36353561342e323520342e32352030203020302d312e36323520312e35393520342e32373320342e3237332030203020302d2e35373220322e3230387631372e34343161342e323720342e3237203020302030202e35373220322e32303820342e323520342e323520302030203020312e36323520312e3539356c31342e38363420382e36353561342e33383220342e33383220302030203020342e33393420306c31302e3038312d352e39303120362e38352d342e3036352031302e3038312d352e39303161342e33383220342e33383220302030203120342e33393420306c372e38383420342e353961342e353220342e353220302030203120312e35383920312e36313620342e353420342e3534203020302031202e36303820322e31383776392e33313161342e323720342e32372030203020312d2e35373220322e32303820342e323520342e32352030203020312d312e36323520312e3539356c2d372e38383420342e37323161342e33383220342e3338322030203020312d342e33393420306c2d372e3838342d342e353961342e353220342e35322030203020312d312e3538392d312e36313620342e353320342e35332030203020312d2e3630382d322e313837762d362e3033326c2d362e383520342e30363576362e30333261342e323720342e3237203020302030202e35373220322e32303820342e323520342e323520302030203020312e36323520312e3539356c31342e38363420382e36353561342e33383220342e33383220302030203020342e33393420306c31342e3836342d382e36353561342e35343520342e35343520302030203020322e3139382d332e3830335635352e35333861342e323720342e32372030203020302d2e3537322d322e32303820342e323520342e32352030203020302d312e3632352d312e3539356c2d31342e3939332d382e3738367a222066696c6c3d2223666666222f3e3c646566733e3c6c696e6561724772616469656e742069643d2261222078313d2230222079313d2230222078323d22323730222079323d2232373022206772616469656e74556e6974733d227573657253706163654f6e557365223e3c73746f702073746f702d636f6c6f723d22236362656565222f3e3c73746f70206f66667365743d2231222073746f702d636f6c6f723d2223306364376534222073746f702d6f7061636974793d222e3939222f3e3c2f6c696e6561724772616469656e743e3c2f646566733e3c7465787420783d2233322e352220793d223233312220666f6e742d73697a653d223237222066696c6c3d2223666666222066696c7465723d2275726c282362292220666f6e742d66616d696c793d22506c7573204a616b617274612053616e732c44656a6156752053616e732c4e6f746f20436f6c6f7220456d6f6a692c4170706c6520436f6c6f7220456d6f6a692c73616e732d73657269662220666f6e742d7765696768743d22626f6c64223e20656c6475636174692e6865726f203c2f746578743e3c2f7376673e",
    "sourcePath": "/home/dentes/Downloads/Development/cool-domains-on-polygon/contracts/Domains.sol",
    "compiler": {
        "name": "solc",
        "version": "0.8.12+commit.f00d7308"
    },
    "functionHashes": {
        "approve(address,uint256)": "095ea7b3",
        "balanceOf(address)": "70a08231",
        "domains(string)": "26449235",
        "getAddress(string)": "bf40fac1",
        "getApproved(uint256)": "081812fc",
        "getRecord(string)": "11dd8845",
        "isApprovedForAll(address,address)": "e985e9c5",
        "name()": "06fdde03",
        "ownerOf(uint256)": "6352211e",
        "price(string)": "fe2c6198",
        "records(string)": "541e771d",
        "register(string)": "f2c298be",
        "safeTransferFrom(address,address,uint256)": "42842e0e",
        "safeTransferFrom(address,address,uint256,bytes)": "b88d4fde",
        "setApprovalForAll(address,bool)": "a22cb465",
        "setRecord(string,string)": "c1880a98",
        "supportsInterface(bytes4)": "01ffc9a7",
        "symbol()": "95d89b41",
        "tld()": "2d551432",
        "tokenURI(uint256)": "c87b56dd",
        "transferFrom(address,address,uint256)": "23b872dd"
    },
    "gasEstimates": {
        "creation": {
            "codeDepositCost": "2010600",
            "executionCost": "infinite",
            "totalCost": "infinite"
        },
        "external": {
            "approve(address,uint256)": "infinite",
            "balanceOf(address)": "2634",
            "domains(string)": "infinite",
            "getAddress(string)": "infinite",
            "getApproved(uint256)": "4799",
            "getRecord(string)": "infinite",
            "isApprovedForAll(address,address)": "infinite",
            "name()": "infinite",
            "ownerOf(uint256)": "2579",
            "price(string)": "infinite",
            "records(string)": "infinite",
            "register(string)": "infinite",
            "safeTransferFrom(address,address,uint256)": "infinite",
            "safeTransferFrom(address,address,uint256,bytes)": "infinite",
            "setApprovalForAll(address,bool)": "26775",
            "setRecord(string,string)": "infinite",
            "supportsInterface(bytes4)": "534",
            "symbol()": "infinite",
            "tld()": "infinite",
            "tokenURI(uint256)": "infinite",
            "transferFrom(address,address,uint256)": "infinite"
        }
    }
}